:100000000C94D6000C94FE000C94FE000C94FE00A0
:100010000C94FE000C94FE000C94FE000C94FE0068
:100020000C94FE000C94FE000C94FE000C94FE0058
:100030000C94FE000C94FE000C94FE000C94FE0048
:100040000C94900B0C94FE000C94000C0C94DA0BA6
:100050000C94FE000C94FE000C94FE000C94FE0028
:100060000C94710A0C94FE0000407A10F35A00A020
:10007000724E18090010A5D4E80000E87648170071
:1000800000E40B54020000CA9A3B000000E1F505B1
:10009000000080969800000040420F000000A086FB
:1000A00001000000102700000000E803000000002D
:1000B0006400000000000A000000000001000000D1
:1000C00000002C76D888DC674F0823DFC1DFAE59EB
:1000D000E1B1B796E5E3E453C63AE651997696E87E
:1000E000E6C28426EB898C9B62ED407C6FFCEFBC02
:1000F0009C9F40F2BAA56FA5F490055A2AF75C932D
:100100006B6CF9676DC11BFCE0E40D47FEF520E662
:10011000B500D0ED902E0300943577050080841E45
:10012000080000204E0A000000C80C333333330FA0
:10013000986E12831141EF8D2114893BE65516CF3D
:10014000FEE6DB18D1844B381BF77C1D901DA4BB49
:10015000E424203284725E228100C9F124ECA1E5FE
:100160003D2700000000250028002B0004040404A3
:100170000404040402020202020203030303030351
:10018000010204081020408001020408102001022E
:10019000040810200000000800020100000304070A
:1001A0000000000000000000320C6F0E11241FBE82
:1001B000CFEFD8E0DEBFCDBF11E0A0E0B1E0ECECC6
:1001C000FBE202C005900D92AC3DB107D9F723E0E8
:1001D000ACEDB1E001C01D92AB37B207E1F710E022
:1001E000C5EDD0E004C02197FE010E94C712C43DB6
:1001F000D107C9F70E94A50C0C94D9150C940000E6
:1002000090E0FC01EC56FE4F2491FC01E058FE4FBB
:100210003491FC01E459FE4FE491EE23C9F022230E
:1002200039F0233001F1A8F4213019F1223029F1FD
:10023000F0E0EE0FFF1FEE59FE4FA591B4918FB77E
:10024000F894EC91611126C030953E233C938FBF0A
:1002500008952730A9F02830C9F0243049F780915B
:1002600080008F7D03C0809180008F778093800015
:10027000DFCF84B58F7784BDDBCF84B58F7DFBCF97
:100280008091B0008F778093B000D2CF8091B00082
:100290008F7DF9CF3E2BDACF20911402260F332722
:1002A000331F21323105ECF420918102FC0190E0F2
:1002B00080E0243069F082E00895A0911402219139
:1002C000AC014E505E4FA40FB52FB11D2C9301967B
:1002D000861798F380911402680F6093140280E0EF
:1002E000089581E008951092810281E08093800258
:1002F00010925B0261E082E10E94000161E083E113
:100300000E940001E9EBF0E080818E7F8083808194
:100310008D7F808388E48093B80085E48093BC005F
:100320000895CF93DF9391E09093F1018823B9F082
:10033000C091B800D091BA008091BC008A7B8093B4
:10034000BC0060E082E10E94000160E083E10E9465
:1003500000010E947301D093BA00C093B800DF91EE
:10036000CF910895089508950895E0913A028091FB
:100370003902E81730F4F0E0E55CFD4F808190E051
:1003800008958FEF9FEF089590913A02809139027E
:100390002FEF3FEF981748F4E92FF0E0E55CFD4FB1
:1003A000208130E09F5F90933A02C90108958091C7
:1003B000390290913A02891B990B0895CF92DF92EE
:1003C000EF92FF920F931F93CF93DF937C01CB01AA
:1003D0008A0120918702222389F0EB016B01C40E70
:1003E000D51ECC15DD0569F06991D701ED91FC9121
:1003F0000190F081E02DC7010995F3CF642F0E9491
:100400004C01C801DF91CF911F910F91FF90EF90A8
:10041000DF90CF900895CF93DF931F92CDB7DEB7D3
:100420006983209187022223F9F02091AA022032C9
:1004300058F021E030E0FC013383228390E080E03B
:100440000F90DF91CF91089580918802E82FF0E01E
:10045000E757FD4F998190838F5F80938802809347
:10046000AA0281E090E0ECCF61E0CE0101960E940B
:100470004C01F7CF3FB7F8948091ED019091EE01D8
:10048000A091EF01B091F00126B5A89B05C02F3FC8
:1004900019F00196A11DB11D3FBFBA2FA92F982FAA
:1004A0008827BC01CD01620F711D811D911D42E0A5
:1004B000660F771F881F991F4A95D1F708958F926D
:1004C0009F92AF92BF92CF92DF92EF92FF920F93E3
:1004D0001F93CF93DF93D091AA02D13208F0D7C0F7
:1004E000182FC091A9020E943A026B017C018091F1
:1004F000810281116BC082E080938102109380029F
:100500008FEF80937F0210927E02D0937D02A9E844
:10051000B2E0EDE5F2E080E0D81391C010925C0209
:1005200080915C02CC0FC82BC0935C0280915B026F
:10053000813009F088C010925B020E943A026B0180
:100540007C0180915C028093BB008091830290913A
:100550008402A0918502B0918602892B8A2B8B2B75
:10056000A1F00E943A02009183021091840220912E
:100570008502309186026C197D098E099F09061744
:1005800017072807390708F442C08091BC0083FD93
:10059000D8CF85EC8093BC000E943A026B017C01AD
:1005A00080918102823009F450C080917F028F3F98
:1005B00009F46FC080917F02803209F46CC0809191
:1005C0007F02803309F469C084E026C080918302F1
:1005D00090918402A0918502B0918602892B8A2B8A
:1005E0008B2B09F484CF0E943A0280908302909072
:1005F0008402A0908502B09086026C197D098E0954
:100600009F0986169706A806B90608F070CF809154
:1006100082020E94910185E0109288021092AA0243
:1006200010928702DF91CF911F910F91FF90EF9071
:10063000DF90CF90BF90AF909F908F9008959D9145
:1006400091938F5F69CF85EEA5CF809183029091C2
:100650008402A0918502B0918602892B8A2B8B2B74
:1006600009F49ECF0E943A02009183021091840205
:1006700020918502309186026C197D098E099F09AF
:10068000061717072807390708F08ACFC0CF81E07F
:10069000C3CF80E0C1CF82E0BFCF83E0BDCF1F9347
:1006A000CF93DF93162FC4E5D3E0A981BA81988157
:1006B00021E0209387029093A90210928802109261
:1006C000AA02ED91FC9111970190F081E02D682F25
:1006D000CD01099589819A81DC01ED91FC91019010
:1006E000F081E02D612F099581E0DF91CF911F917D
:1006F0000C945F028F929F92AF92BF92CF92DF9243
:10070000EF92FF924B015C010E943A026B017C0167
:100710000E943A026C197D098E099F09683E734058
:1007200081059105A8F321E0821A9108A108B1087A
:1007300088EEC80E83E0D81EE11CF11C81149104E0
:10074000A104B10429F7FF90EF90DF90CF90BF9004
:10075000AF909F908F900895AF92BF92CF92DF920B
:10076000EF92FF920F931F93CF93DF936C017B0166
:100770008B01040F151FEB015E01AE18BF08C017F7
:10078000D10759F06991D601ED91FC910190F0816A
:10079000E02DC6010995892B79F7C501DF91CF912D
:1007A0001F910F91FF90EF90DF90CF90BF90AF908F
:1007B000089590E080E00895FC01538D448D252F2D
:1007C00030E0842F90E0821B930B541710F0CF96EB
:1007D000089501970895FC01918D828D981761F01D
:1007E000A28DAE0FBF2FB11D5D968C91928D9F5F34
:1007F0009F73928F90E008958FEF9FEF0895FC0113
:10080000918D828D981731F0828DE80FF11D858DC5
:1008100090E008958FEF9FEF0895FC01918D228D58
:10082000892F90E0805C9F4F821B91098F739927DD
:1008300008958BEA92E00E940D0421E0892B09F4CF
:1008400020E0822F089580E090E0892B29F00E941B
:10085000190481110C9400000895FC01A48DA80FC7
:10086000B92FB11DA35ABF4F2C91848D90E00196F2
:100870008F739927848FA689B7892C93A089B18912
:100880008C91837080648C93938D848D981306C0B3
:100890000288F389E02D80818F7D80830895EF9217
:1008A000FF920F931F93CF93DF93EC0181E0888F2A
:1008B0009B8D8C8D98131AC0E889F989808185FFFA
:1008C00015C09FB7F894EE89FF896083E889F9899C
:1008D00080818370806480839FBF81E090E0DF919E
:1008E000CF911F910F91FF90EF900895F62E0B8DF1
:1008F00010E00F5F1F4F0F731127E02E8C8D8E11AC
:100900000CC00FB607FCFACFE889F989808185FF12
:10091000F5CFCE010E942D04F1CFEB8DEC0FFD2F12
:10092000F11DE35AFF4FF0829FB7F8940B8FEA89CD
:10093000FB8980818062CFCFCF93DF93EC01888DDC
:100940008823B9F0AA89BB89E889F9898C9185FD4A
:1009500003C0808186FD0DC00FB607FCF7CF8C91D8
:1009600085FFF2CF808185FFEDCFCE010E942D045F
:10097000E9CFDF91CF910895DC01ED91FC910190D9
:10098000F081E02D09948F929F92AF92BF92CF9207
:10099000DF92EF92FF920F931F93CF936B017C0135
:1009A00020E030E040E85FE30E94091187FDDEC0EF
:1009B00020E030EC4AE555E4C701B6010E94E2139D
:1009C00018163CF4C12C30ECD32E3AE5E32E35E476
:1009D000F32E6091570370915803809159039091C1
:1009E0005A030E940E114B015C0120E030E040E808
:1009F00055E4C701B6010E946F119B01AC01C5010E
:100A0000B4010E943A1320E030E040E05FE30E942E
:100A1000CE1220E030E040E85FE30E94CD126B018F
:100A20007C0120E030E040E450E40E94091187FDA1
:100A3000A4C020E030E04FE753E4C701B6010E94B4
:100A4000E213181634F4C12CD12C9FE7E92E93E45D
:100A5000F92EC701B6010E94B313F62E80915503FB
:100A6000909156032091540331E0309387022093F4
:100A7000A902109288021092AA02DC01ED91FC9169
:100A80000190F081E02D60E0099581E00E945F0215
:100A9000C09154030E943A024B015C018091810293
:100AA000811171C081E080938102809380029FEF69
:100AB00090937F0210927E0210927D0280935C02DE
:100AC00080915C02CC0FC82BC0935C0280915B02CA
:100AD000813009F0B2C010925B020E943A024B01D1
:100AE0005C0180915C028093BB00809183029091B5
:100AF0008402A0918502B0918602892B8A2B8B2BD0
:100B0000A1F00E943A020091830210918402209188
:100B1000850230918602681979098A099B090617AE
:100B200017072807390708F44FC08091BC0083FDE0
:100B3000D8CF85EC8093BC000E943A024B015C0147
:100B400080918102813009F47AC080917E02811106
:100B500098C080917E02EDE5F2E0ABE3B2E090E078
:100B60009817B9F121912D939F5FFACFC12CD12C09
:100B700020E8E22E2FE3F22E2CCFC12CD12C80E4E2
:100B8000E82EFE2C66CF8091830290918402A09182
:100B90008502B0918602892B8A2B8B2B09F47ECF9C
:100BA0000E943A02009183021091840220918502F2
:100BB00030918602681979098A099B090617170777
:100BC0002807390708F06ACF809182020E949101BC
:100BD00080E010923A0280933902809155039091FF
:100BE0005603DC01ED91FC910284F385E02D09951B
:100BF000C82F682F6F76606180E00E944F036F2DD1
:100C00008EEF0E944F036C2F80E00E944F0365E03F
:100C100070E080E090E00E947A036C2F606A80E0D0
:100C2000CF911F910F91FF90EF90DF90CF90BF90E9
:100C3000AF909F908F900C944F0385EE7BCF809167
:100C4000830290918402A0918502B0918602892B43
:100C50008A2B8B2B09F474CF0E943A0200918302F5
:100C600010918402209185023091860268197909D9
:100C70008A099B09061717072807390708F060CF6C
:100C8000A3CF81E068CFCF92DF92EF92FF920F93D4
:100C90001F93CF93DF938C016A01EB01CB01089680
:100CA000D80113969C938E93129715967C936E930E
:100CB0001497880F991F880F991F0E94E713F80156
:100CC00080839183FC0190E080E0C817D90789F008
:100CD000309749F0D6014D915D916D917C914083A3
:100CE0005183628373830196B4E0CB0ED11C34969A
:100CF000ECCFDF91CF911F910F91FF90EF90DF909C
:100D0000CF90089585ED8093BC00809183029091EF
:100D10008402A0918502B09186020796A11DB11DA3
:100D200023E0B695A795979587952A95D1F72091B9
:100D3000BC0024FD03C010928102089540918302FB
:100D4000509184026091850270918602452B462B5A
:100D5000472B69F30097A105B10541F025E32A95DA
:100D6000F1F700000197A109B109E1CF809182025A
:100D70000C94910142E050E06AE771E00C94AC03FE
:100D80000F931F93CF93DF93EC01FB0144815581B7
:100D9000608171810E94AC038C01CE010E94BA0671
:100DA000800F911FDF91CF911F910F9108950F93A5
:100DB0001F93CF93DF93EC0188819981009759F0BD
:100DC0002A813B812617370730F081E0DF91CF91F0
:100DD0001F910F9108958B016F5F7F4F0E940C153B
:100DE000009759F0998388831B830A832C813D8166
:100DF000232B59F7FC011082E8CF80E0E7CFEF9278
:100E0000FF920F931F93CF93DF936115710541F408
:100E100080E0DF91CF911F910F91FF90EF900895A7
:100E200041155105B1F07B01EC010C811D81040FCE
:100E3000151FB8010E94D706882351F328813981F4
:100E40008C819D81B701820F931F0E94D2151D8353
:100E50000C8381E0DECFCF93DF93EC018881998111
:100E6000009711F00E948314198218821D821C823F
:100E70001B821A82DF91CF910895EF92FF920F9318
:100E80001F93CF93DF93CDB7DEB764970FB6F89477
:100E9000DEBF0FBECDBF7C01CB01BA018E010F5F5B
:100EA0001F4F22E044E00E947F0EFC0101900020D1
:100EB000E9F73197AF01481B590BBC01C7010E94EC
:100EC000FF06811103C0C7010E942B07C70164966A
:100ED0000FB6F894DEBF0FBECDBFDF91CF911F914B
:100EE0000F91FF90EF900895EF92FF920F931F9351
:100EF000CF93DF93CDB7DEB728970FB6F894DEBF58
:100F00000FBECDBF7C01CB014AE08E010F5F1F4FAA
:100F1000B8010E949D0EF80101900020E9F7319779
:100F2000AF01401B510BB801C7010E94FF068111A0
:100F300003C0C7010E942B07C70128960FB6F8947B
:100F4000DEBF0FBECDBFDF91CF911F910F91FF90FC
:100F5000EF900895EF92FF920F931F93CF93DF933B
:100F6000EC01198218821B821A821D821C8286174C
:100F7000970719F1FB010081118101151105E9F0B5
:100F8000E480F580B7010E94D706811109C0CE0127
:100F9000DF91CF911F910F91FF90EF900C942B0751
:100FA000FD82EC82B80188819981DF91CF911F91F8
:100FB0000F91FF90EF900C94D215DF91CF911F917C
:100FC0000F91FF90EF900895EF92FF920F931F9370
:100FD000CF93DF93EC017B01198218821B821A8266
:100FE0001D821C82FB0101900020E9F731978F01DF
:100FF000061B170BB8010E94D706811109C0CE014C
:10100000DF91CF911F910F91FF90EF900C942B07E0
:101010001D830C83B70188819981DF91CF911F9146
:101020000F91FF90EF900C94D215FC01808191817B
:10103000009711F00C9483140895AF92BF92CF9251
:10104000DF92EF92FF920F931F93CF93DF93CDB771
:10105000DEB72C970FB6F894DEBF0FBECDBF8C0164
:101060006A017B016DE771E0CE0101960E94E40701
:10107000BE016F5F7F4FCE0107960E94AA07B8019D
:10108000CE0107960E9474075C0147E050E065E8D6
:1010900071E00E94FF06811103C0C5010E942B0769
:1010A000B701A601C5010E943D07BC018BEA92E091
:1010B0000E94C006CE0107960E941508CE01019637
:1010C0000E941508F8013197EB30F10508F0A2C035
:1010D000E459F74F0C94C7123609660977082D0AB0
:1010E00066098E09B609DE09060A2D0A7B09C701C1
:1010F000B6010E94AC139B01AC01A6E9B0E00E94CE
:101100004C122FEA30E040E050E00E942D12CA015C
:10111000B9016C537109810991090E9410110E9453
:10112000AC139B01AC01A0E4B7E00E944C1224EB8D
:1011300030E040E050E00E942D12CA01B901605E2B
:101140007D4F8F4F9F4F0E94101120E034E244E703
:1011500059E40E943A1320E030E040EF51E40E944D
:101160006F1120E030E040E855E40E946F110E94CA
:10117000AC137B0180915503909156032091540349
:1011800031E0309387022093A902109288021092D6
:10119000AA02B801660F771F660F771F6A5F7F4F3D
:1011A000DC01ED91FC910190F081E02D099570E05A
:1011B00060E080915503909156030E94BC0470E05A
:1011C00060E080915503909156030E94BC04B701E2
:1011D00080915503909156030E94BC046F2D70E0DE
:1011E00080915503909156030E94BC0481E00E94B7
:1011F0005F022C960FB6F894DEBF0FBECDBFDF9115
:10120000CF911F910F91FF90EF90DF90CF90BF9003
:10121000AF90089520E030E04CE752ECC701B601F2
:101220000E94091187FD2CC120E030E048E352E420
:10123000C701B6010E94E21318160CF421C1C701C0
:10124000B6010E94AC139B01AC01215C3F4F4F4F94
:101250005F4FAEE6B0E00E944C122DE630E040E079
:1012600050E00E942D12CA01B90157CF20E030E0B2
:1012700044EB52ECC701B6010E94091187FD00C181
:1012800020E030E044E952E4C701B6010E94E213D5
:1012900018160CF4F5C0C701B6010E94AC139B01EF
:1012A000AC01265A3F4F4F4F5F4FA8E5BFEF0E945A
:1012B0005A1224EA30E040E050E00E942D12CA01A8
:1012C000B90168557F4F8F4F9F4F27CF20E030E007
:1012D00040E352E4C701B6010E94091187FDD0C066
:1012E00020E030E04CE053E4C701B6010E94E21375
:1012F00018160CF4C5C0C701B6010E94AC139B01BF
:10130000AC012C52310941095109A6E9B0E00E9413
:101310004C1220E630E040E050E0A3CF20E030E087
:101320004AEA52ECC701B6010E94091187FDA8C024
:1013300020E030E044EB52E4C701B6010E94E21322
:1013400018160CF49DC0C701B6010E94AC139B0196
:10135000AC012A55310941095109A4EBB0E00E94C2
:101360004C1221E53FEF4FEF5FEF7BCF20E030E005
:1013700040EA52ECC701B6010E94091187FD80C006
:1013800020E030E044EB52E4C701B6010E94E213D2
:1013900018160CF475C0C701B6010E94AC139B016E
:1013A000AC01205B3F4F4F4F5F4FA0EAB0E00E947F
:1013B0004C122AEA30E040E050E053CF20E030E029
:1013C00040E252E4C701B6010E94091187FD58C0EE
:1013D00020E030E041E153E4C701B6010E94E2138E
:1013E00018160CF44DC0C701B6010E94AC139B0146
:1013F000AC012159310941095109A4EBB0E00E9427
:101400004C1227E93FEF4FEF5FEF2BCF20E030E0AA
:1014100040E752ECC701B6010E94091187FD30C0B8
:1014200020E030E044E353E4C701B6010E94E21338
:10143000181634F1C701B6010E94AC139B01AC0130
:10144000245C3F4F4F4F5F4FA8E7B0E00E944C1223
:1014500020EF30E040E050E004CFC701B6010E9429
:10146000AC139B01AC012055310941095109ACEA8B
:10147000B0E00E944C1226E53FEF4FEF5FEFF1CE58
:101480006DE871E0CE0101960E94E407BE016F5F36
:101490007F4FCE0107960E94AA07B801CE0107969A
:1014A0000E9474078C014BE150E06EE971E00E94EC
:1014B000FF06811103C0C8010E942B07B8018BEA07
:1014C00092E00E94C006CE0107960E941508CE0148
:1014D00001960E9415088DCEFC01808191810C94AB
:1014E00083141F920F920FB60F9211242F933F93E4
:1014F0004F935F936F937F938F939F93AF93BF931C
:10150000EF93FF938091B900887F803609F44AC039
:10151000F0F5883209F4A7C018F5803109F49BC0B2
:10152000B8F4882309F4F9C0883009F494C0FF9115
:10153000EF91BF91AF919F918F917F916F915F914B
:101540004F913F912F910F900FBE0F901F901895C4
:10155000883109F488C0803251F780937F0214C02B
:10156000803409F49DC040F48033B9F38833F9F630
:1015700080937F0285ECB0C0803509F485C0883542
:1015800009F496C0883499F60E948206D0CF883933
:1015900009F48CC038F5883729F050F4883611F0FA
:1015A000803729F683E0809381021092380257C079
:1015B000883809F47BC0803919F0803809F0B7CF3A
:1015C00080913802803208F071C0E091380281E0E9
:1015D0008E0F809338028091BB00F0E0E85EFD4FF3
:1015E00080833DC0803B39F0E0F4803A09F479C053
:1015F000883A09F09CCF84E0809381021092150212
:1016000010921402E0911202F09113020995809158
:10161000140281110FC081E0809314021092F20134
:1016200009C0803C09F4A6CF883C09F4A3CF883BCD
:1016300009F07DCFE091150281E08E0F80931502B5
:10164000F0E0EE50FE4F80818093BB009091150238
:101650008091140229C080915C028093BB0085ECCC
:101660008093BC0064CF90917E0280917D02981798
:1016700058F5E0917E0281E08E0F80937E02F0E0CB
:10168000E35AFD4F8081E9CFE0917E0281E08E0F29
:1016900080937E028091BB00F0E0E35AFD4F80838F
:1016A00090917E0280917D029817C8F285E8D8CF8C
:1016B000E0917E0281E08E0F80937E028091BB00DC
:1016C000F0E0E35AFD4F80838091800281115CCF6E
:1016D00081E080935B0284EA8093BC0010928102D7
:1016E00026CF85EC8093BC00109281028091380255
:1016F000803230F4E0913802F0E0E85EFD4F108275
:101700006091380270E0E0911602F091170288E1D2
:1017100092E00995109238020ACF10927F0234CFDE
:101720001F920F920FB60F9211242F933F938F9316
:101730009F93AF93BF938091E9019091EA01A091AB
:10174000EB01B091EC013091E80123E0230F2D373C
:1017500058F50196A11DB11D2093E8018093E90180
:101760009093EA01A093EB01B093EC018091ED011D
:101770009091EE01A091EF01B091F0010196A11DB1
:10178000B11D8093ED019093EE01A093EF01B09312
:10179000F001BF91AF919F918F913F912F910F9049
:1017A0000FBE0F901F90189526E8230F0296A11DDB
:1017B000B11DD2CF1F920F920FB60F9211242F930B
:1017C0003F934F935F936F937F938F939F93AF93C9
:1017D000BF93EF93FF938BEA92E00E942D04FF9159
:1017E000EF91BF91AF919F918F917F916F915F9199
:1017F0004F913F912F910F900FBE0F901F90189512
:101800001F920F920FB60F9211242F938F939F93D5
:10181000EF93FF93E091BB02F091BC028081E091D5
:10182000C102F091C20282FD1BC090818091C4026E
:101830008F5F8F732091C502821741F0E091C4023F
:10184000F0E0E555FD4F958F8093C402FF91EF9135
:101850009F918F912F910F900FBE0F901F90189511
:101860008081F4CFA8E4B3E013961C921E921297E5
:1018700048EE53E060E070E014964D935D936D93F5
:101880007C9317978AE591E011969C938E93EBEAEF
:10189000F2E01382128244835583668377838CE659
:1018A00091E09183808385EC90E09587848784EC38
:1018B00090E09787868780EC90E0918B808B81EC1D
:1018C00090E0938B828B82EC90E0958B848B86ECFE
:1018D00090E0978B868B118E128E138E148EE4E51A
:1018E000F3E080E48083B283A183409106015091AC
:1018F0000701609108017091090180E793E00E945F
:10190000430640910A0150910B0160910C017091C6
:101910000D0189E693E00E94430640910E0150912B
:101920000F01609110017091110182E693E00E9415
:10193000430640911201509113016091140170917E
:1019400015018BE593E00C944306CF93DF93CDB75D
:10195000DEB72C970FB6F894DEBF0FBECDBF7894DC
:1019600084B5826084BD84B5816084BD85B58260A4
:1019700085BD85B5816085BD80916E008160809355
:101980006E001092810080918100826080938100BE
:1019900080918100816080938100809180008160CE
:1019A000809380008091B10084608093B100809129
:1019B000B00081608093B00080917A008460809351
:1019C0007A0080917A00826080937A0080917A0018
:1019D000816080937A0080917A00806880937A0099
:1019E0001092C10010923A021092390210928802AD
:1019F0001092AA020E94730182EB91E0909313026D
:101A00008093120283EB91E0909317028093160269
:101A100060E880E00E944F036AE070E080E090E0C0
:101A20000E947A0360E070E08AE794E40E94C304B5
:101A300080E498E7ADE7B1E08093570390935803B3
:101A4000A0935903B0935A0360E070E080EF91E4F3
:101A50000E94C304E091BB02F091BC0282E080834B
:101A6000E091B702F091B8021082E091B902F091D2
:101A7000BA0280E180831092C302E091BF02F0912C
:101A8000C00286E08083E091BD02F091BE028081B9
:101A900080618083E091BD02F091BE028081886008
:101AA0008083E091BD02F091BE02808180688083D6
:101AB000E091BD02F091BE0280818F7D808340E085
:101AC00050E0BA0190E080E00E941D0840E050E044
:101AD000BA0183E090E00E941D0840E050E0BA01A6
:101AE00086E090E00E941D0840E050E0BA0189E0E5
:101AF00090E00E941D0840E050E064E372EC81E059
:101B000090E00E941D0840E050E064E372EC84E045
:101B100090E00E941D0840E050E064E372EC87E032
:101B200090E00E941D0840E050E064E372EC8AE01F
:101B300090E00E941D0840E050E064E372E482E01F
:101B400090E00E941D0840E050E064E372E485E00C
:101B500090E00E941D0840E050E064E372E488E0F9
:101B600090E00E941D0840E050E064E372E48BE0E6
:101B700090E00E941D0882E698E6A8E4B1EC80930C
:101B8000E4019093E501A093E601B093E70182ECB4
:101B900090EDA0E9B0EC8093E0019093E101A09377
:101BA000E201B093E3018CE59FE8AAE8B0E48093FA
:101BB000DC019093DD01A093DE01B093DF0141E1F0
:101BC00050E06AEB71E08BEA92E00E94AC038BEA92
:101BD00092E00E94BA06C090E401D090E501E09046
:101BE000E601F090E7016CEC71E0CE0107960E94EF
:101BF000E407BE01695F7F4FCE0101960E94AA07EC
:101C0000B701A601CE0101960E943D07BC018BEAF7
:101C100092E00E94C006CE0101960E941508CE01F6
:101C200007960E941508C090E001D090E101E09075
:101C3000E201F090E30161ED71E0CE0107960E94B0
:101C4000E407BE01695F7F4FCE0101960E94AA079B
:101C5000B701A601CE0101960E943D07BC018BEAA7
:101C600092E00E94C006CE0101960E941508CE01A6
:101C700007960E941508C090DC01D090DD01E0902D
:101C8000DE01F090DF0166ED71E0CE0107960E9463
:101C9000E407BE01695F7F4FCE0101960E94AA074B
:101CA000B701A601CE0101960E943D07BC018BEA57
:101CB00092E00E94C006CE0101960E941508CE0156
:101CC00007960E94150800E010E001151105E9F3E0
:101CD0000E9419048823C9F30E940000F6CF8BE507
:101CE00093E00E946C0A82E693E00E946C0A89E607
:101CF00093E00E946C0A80E793E00C946C0AEF92E8
:101D00000F931F93CF93DF93E80134E047FD34E155
:101D1000042E000C550B57FF03C0519541955109F6
:101D2000E32E022F242FAE010E94C20ECE01DF91BE
:101D3000CF911F910F91EF900895BB274A3031F456
:101D4000992322F4BDE2909581959F4F0C94A90EA2
:101D5000BB27FB015527AA27880F991FAA1FA41785
:101D600010F0A41B83955051B9F7A05DAA3308F079
:101D7000A95DA193009779F7B111B1931192CB01AD
:101D80000C94F910A9E0B0E0E8ECFEE00C946512C8
:101D90006A01F22EB02E102FFBE3AF2EA01608F42E
:101DA0001BE31F5F012F27E0AE014F5F5F4F0E94D3
:101DB0002110BC018981982F9970913009F43FC09E
:101DC0009BE2E1FC04C09E2D9170E0FC3AC05E2DC8
:101DD0005071E82FE87083FF46C084E0911101C084
:101DE00083E0EF2DE81B8F1508F0E0E0D6018E2F81
:101DF00020E2552351F1992329F0D6019C93C60185
:101E000001966C0196012D5F3F4FE2FE24C08EE4E7
:101E1000D6018C9391E411969C93119712968C9312
:101E2000D9018E2F90E281111BC0E20FF32FF11D1B
:101E300010828EEF9FEF2996ECE00C9481129DE2C8
:101E4000C6CF90E2C4CF2D9381508111FCCFCE0E2E
:101E5000D11CE0E0D0CF8EE6D6018C9391E6DBCFAB
:101E60009D938150E0CF482F447082FF3DC084E0B5
:101E7000911101C083E08F1510F4EF2DE81BD601FE
:101E80008E2F20E2552309F1992329F0D6019C9346
:101E9000C60101966C0196012D5F3F4FE2FE1BC00B
:101EA00089E4D6018C938EE411968C93119786E485
:101EB00012968C93D9018E2F90E2882309F4B5CF26
:101EC0009D938150FACF2D9381508111FCCFCE0E7E
:101ED000D11CE0E0D9CF89E6D6018C938EE611962D
:101EE0008C93119786E6E4CF9B0177FF02C030E028
:101EF00020E0A1E0B0E0911102C0B0E0A0E0F90163
:101F00003196AE0FBF1F8B2C912CBB2009F461C002
:101F10005401EFEFAE1ABE0AAA0DBB1DFA161B063E
:101F200019F014F04F2D4A1B511188C0E3FC59C021
:101F30007601A42FB0E2A1114FC0C40ED11C992389
:101F400009F45BC040E0D6011196F60190836D0163
:101F5000552309F448C0012F060F9A81582F50715C
:101F600084FF03C0913309F4015010160CF047C0F0
:101F7000093008F008E0EEE2FE2E5B01A01AB1087D
:101F800085019194819491082F3F320729F4D6015D
:101F9000FC92F60131966F016217730794F10217F4
:101FA00013077CF5DB01A21BB30BAA24A394B12C6D
:101FB000AC0EBD1EAA0DBB1D11968C91215031098E
:101FC000D601119628153905F4F0F60180836D01CC
:101FD000DBCFB12CA12CA0CFF701B1937F01A15091
:101FE000AACF9111B0CFD601942F50E302C05D93D8
:101FF00091509111FCCFC40ED11C40E0ACCF01E058
:10200000BACF80E3DBCF6217730731F4963388F4DD
:10201000953311F4552369F0F6018083FD01842F77
:1020200090E2811108C0A40FB11D1C9290E080E0E5
:1020300002CF81E3F1CF91938150F3CF911183CF00
:102040008ACF283008F027E03327DA01990F311DB5
:1020500087FD916000966105710539F432602E5F4D
:102060003D9330E32A95E1F708959F3F30F08038A3
:102070007105610509F03C5F3C5F3D93913008F0CC
:102080008068911DDF93CF931F930F93FF92EF9280
:10209000192F987F9695E92F96959695E90FFF272A
:1020A000EE53FF4F99273327EE24FF24A701E701C2
:1020B00005900894079428F4360FE71EF81E491F70
:1020C000511D660F771F881F991F0694A1F7059071
:1020D000079428F4E70EF81E491F561FC11D770FFD
:1020E000881F991F661F0694A1F70590079428F48E
:1020F000F80E491F561FC71FD11D880F991F661F55
:10210000771F0694A1F70590079420F4490F561FF6
:10211000C71FD81F990F661F771F881F0694A9F73E
:1021200084911095177041F0D695C79557954795AE
:10213000F794E7941A95C1F7E8E6F0E068941590F3
:10214000159135916591959105907FE27395E11810
:10215000F10A430B560BC90BD009C0F7E10CF11E75
:10216000431F561FC91FD01D7EF4703311F48A958A
:10217000E6CFE894015030F0080F0AF40027021768
:1021800008F4202F2395022F7A3328F079E37D93EA
:102190002A95E9F710C07D932A9589F606949795BC
:1021A0006795379517951794E118F10A430B560B6D
:1021B000C90BD00998F023957E9173957A3308F076
:1021C00070E37C932013B8F77E9170617D9330F0BB
:1021D000839571E37D9370E32A95E1F71124EF90E5
:1021E000FF900F911F91CF91DF91992787FD9095D7
:1021F0000895DC01FC01672F71917723E1F7329795
:1022000004C07C916D9370836291AE17BF07C8F3D1
:1022100008950E944B1108F481E00895E89409C0E4
:1022200097FB3EF490958095709561957F4F8F4F09
:102230009F4F9923A9F0F92F96E9BB279395F6951F
:10224000879577956795B795F111F8CFFAF4BB0F9D
:1022500011F460FF1BC06F5F7F4F8F4F9F4F16C001
:10226000882311F096E911C0772321F09EE8872F8B
:10227000762F05C0662371F096E8862F70E060E047
:102280002AF09A95660F771F881FDAF7880F9695C0
:10229000879597F90895990F0008550FAA0BE0E864
:1022A000FEEF16161706E807F907C0F01216130618
:1022B000E407F50798F0621B730B840B950B39F458
:1022C0000A2661F0232B242B252B21F408950A26BE
:1022D00009F4A140A6958FEF811D811D08950E94EC
:1022E00082110C94F3110E94E51138F00E94EC1158
:1022F00020F0952311F00C94DC110C94E2111124C0
:102300000C9427120E94041270F3959FC1F3950F4D
:1023100050E0551F629FF001729FBB27F00DB11D69
:10232000639FAA27F00DB11DAA1F649F6627B00DF9
:10233000A11D661F829F2227B00DA11D621F739FE2
:10234000B00DA11D621F839FA00D611D221F749FF0
:102350003327A00D611D231F849F600D211D822F37
:10236000762F6A2F11249F5750409AF0F1F088235E
:102370004AF0EE0FFF1FBB1F661F771F881F91508B
:102380005040A9F79E3F510580F00C94DC110C944D
:1023900027125F3FE4F3983ED4F3869577956795CF
:1023A000B795F795E7959F5FC1F7FE2B880F911DB5
:1023B0009695879597F9089597F99F6780E870E05B
:1023C00060E008959FEF80EC089500240A941616AB
:1023D000170618060906089500240A941216130613
:1023E000140605060895092E0394000C11F48823A1
:1023F00052F0BB0F40F4BF2B11F460FF04C06F5FBD
:102400007F4F8F4F9F4F089557FD9058440F551F92
:1024100059F05F3F71F04795880F97FB991F61F066
:102420009F3F79F087950895121613061406551FDD
:10243000F2CF4695F1DF08C0161617061806991F49
:10244000F1CF86957105610508940895E894BB273E
:1024500066277727CB0197F90895052E97FB1EF481
:1024600000940E94441257FD07D00E94961207FC68
:1024700003D04EF40C94441250954095309521951C
:102480003F4F4F4F5F4F08959095809570956195A0
:102490007F4F8F4F9F4F08950E94B812A59F900DB8
:1024A000B49F900DA49F800D911D11240895B7FF36
:1024B0000C944C120E944C12821B930B08952F9285
:1024C0003F924F925F926F927F928F929F92AF92C4
:1024D000BF92CF92DF92EF92FF920F931F93CF9311
:1024E000DF93CDB7DEB7CA1BDB0B0FB6F894DEBFA8
:1024F0000FBECDBF09942A88398848885F846E84CE
:102500007D848C849B84AA84B984C884DF80EE8017
:10251000FD800C811B81AA81B981CE0FD11D0FB620
:10252000F894DEBF0FBECDBFED010895A1E21A2ED3
:10253000AA1BBB1BFD010DC0AA1FBB1FEE1FFF1F67
:10254000A217B307E407F50720F0A21BB30BE40BB7
:10255000F50B661F771F881F991F1A9469F76095FE
:102560007095809590959B01AC01BD01CF010895B8
:10257000A29FB001B39FC001A39F700D811D1124C4
:10258000911DB29F700D811D1124911D0895EE0FB4
:10259000FF1F0590F491E02D09945058BB27AA27FE
:1025A0000E94E5120C94F3110E94E51138F00E948C
:1025B000EC1120F039F49F3F19F426F40C94E21149
:1025C0000EF4E095E7FB0C94DC11E92F0E94041255
:1025D00058F3BA17620773078407950720F079F458
:1025E000A6F50C9426120EF4E0950B2EBA2FA02D12
:1025F0000B01B90190010C01CA01A0011124FF27B0
:10260000591B99F0593F50F4503E68F11A16F040AA
:10261000A22F232F342F4427585FF3CF46953795A9
:102620002795A795F0405395C9F77EF41F16BA0B6E
:10263000620B730B840BBAF09150A1F0FF0FBB1F1C
:10264000661F771F881FC2F70EC0BA0F621F731F65
:10265000841F48F4879577956795B795F7959E3FC2
:1026600008F0B0CF9395880F08F09927EE0F979553
:10267000879508950E944E130C94F3110E94EC115B
:1026800058F00E94E51140F029F45F3F29F00C94C6
:10269000DC1151110C9427120C94E2110E940412C7
:1026A00068F39923B1F3552391F3951B550BBB2781
:1026B000AA2762177307840738F09F5F5F4F220FC6
:1026C000331F441FAA1FA9F335D00E2E3AF0E0E8BD
:1026D00032D091505040E695001CCAF72BD0FE2F07
:1026E00029D0660F771F881FBB1F2617370748079B
:1026F000AB07B0E809F0BB0B802DBF01FF27935853
:102700005F4F3AF09E3F510578F00C94DC110C9429
:1027100027125F3FE4F3983ED4F38695779567954B
:10272000B795F7959F5FC9F7880F911D9695879587
:1027300097F90895E1E0660F771F881FBB1F6217A6
:1027400073078407BA0720F0621B730B840BBA0B64
:10275000EE1F88F7E09508950E94B3136894B111B5
:102760000C94271208950E940C1288F09F5798F03D
:10277000B92F9927B751B0F0E1F0660F771F881F86
:10278000991F1AF0BA95C9F714C0B13091F00E94A0
:102790002612B1E008950C942612672F782F88270F
:1027A000B85F39F0B93FCCF3869577956795B395C7
:1027B000D9F73EF490958095709561957F4F8F4F36
:1027C0009F4F08950E944B1108F48FEF08950F93C7
:1027D0001F93CF93DF938230910510F482E090E055
:1027E000E0917903F0917A0330E020E0B0E0A0E0DE
:1027F000309799F42115310509F44AC0281B390B8B
:1028000024303105D8F58A819B816115710589F1E4
:10281000FB0193838283FE0111C0408151810281BB
:10282000138148175907E0F04817590799F4109792
:1028300061F012960C93129713961C933296CF0167
:10284000DF91CF911F910F91089500937903109319
:102850007A03F4CF2115310551F04217530738F0B0
:10286000A901DB019A01BD01DF01F801C1CFEF0130
:10287000F9CF90937A0380937903CDCFFE01E20FD5
:10288000F31F819391932250310939832883D7CF45
:102890002091770330917803232B41F4209102019A
:1028A0003091030130937803209377032091000146
:1028B000309101012115310541F42DB73EB740910A
:1028C000040150910501241B350BE0917703F09131
:1028D0007803E217F307A0F42E1B3F0B28173907E4
:1028E00078F0AC014E5F5F4F2417350748F04E0F6C
:1028F0005F1F5093780340937703819391939FCF09
:10290000F0E0E0E09CCFCF93DF930097E9F0FC018B
:10291000329713821282A0917903B0917A03ED016C
:1029200030E020E01097A1F420813181820F931FC5
:1029300020917703309178032817390709F061C097
:10294000F0937803E0937703DF91CF910895EA0144
:10295000CE17DF07E8F54A815B819E0141155105DD
:10296000B1F7E901FB83EA8349915991C40FD51F5F
:10297000EC17FD0761F4808191810296840F951F09
:10298000E90199838883828193819B838A83F0E024
:10299000E0E012968D919C9113970097B9F52D91D7
:1029A0003C911197CD010296820F931F20917703DE
:1029B000309178032817390739F6309751F510927E
:1029C0007A0310927903B0937803A0937703BCCF76
:1029D000D383C28340815181840F951FC817D907C3
:1029E00061F44E5F5F4F88819981480F591F518371
:1029F00040838A819B81938382832115310509F06D
:102A0000B0CFF0937A03E09379039ECFFD01DC0110
:102A1000C0CF13821282D7CFB0E0A0E0E2E1F5E1AF
:102A20000C9461128C01009751F4CB010E94E713C2
:102A30008C01C801CDB7DEB7E0E10C947D12FC013A
:102A4000E60FF71F9C0122503109E217F30708F443
:102A50009DC0D901CD91DC911197C617D70798F089
:102A6000C530D10530F3CE0104978617970708F3D8
:102A7000C61BD70B2297C193D1936D937C93CF0143
:102A80000E948314D6CF5B01AC1ABD0A4C018C0E98
:102A90009D1EA0917903B0917A03512C412CF12C09
:102AA000E12C109731F58091770390917803881588
:102AB000990509F05CC04616570608F058C0809189
:102AC000000190910101009741F48DB79EB74091AC
:102AD000040150910501841B950BE817F90708F0D4
:102AE00055C0F0937803E0937703F9017183608315
:102AF000A0CF8D919C91119712966C90129713967E
:102B00007C901397A815B90559F56C0142E0C40EE5
:102B1000D11CCA14DB0420F1AC014A195B09DA01AB
:102B20001296159780F06282738251834083D90197
:102B30006D937C93E114F10471F0D7011396FC932B
:102B4000EE93129776CF22968C0F9D1FF9019183F9
:102B50008083F301EFCFF0937A03E093790369CF99
:102B60004816590608F42C017D01D3019ACFCB01F8
:102B70000E94E7137C01009749F0AE01B8010E9462
:102B8000C915C8010E948314870153CF10E000E0EB
:102B900050CFFB01DC0102C001900D92415050402A
:102BA000D8F70895FB01DC0101900D920020E1F7B8
:102BB000089510E0C5EDD0E004C0FE010E94C712E8
:0C2BC0002196C63DD107C9F7F894FFCF5D
:102BCC0000007B038000460104003601040026014E
:102BDC0004001601040000000000000000000000CA
:102BEC0000000000000000000000000000000000D9
:102BFC0000000000000000000000000000000000C9
:102C0C0000000000000000000000000000000000B8
:102C1C00000000000000000000000B02DE01D903E0
:102C2C00B401D701C401B501000000004F04AC038E
:102C3C00DC039C040D04EB03FF030D0A006A6F69AF
:102C4C006E74203A0009616E676C653A003D3D2058
:102C5C004552524F523A204A4F494E542000204779
:102C6C004956454E204F555452414E4745442041FC
:102C7C004E474C452021203D3D003D3D3D204978AF
:102C8C00797A20494E464F203D3D3D0049783A2007
:0C2C9C000049793A2000497A3A200000F3
:00000001FF
